{
  "contractName": "Bounty",
  "abi": [
    {
      "inputs": [],
      "stateMutability": "nonpayable",
      "type": "constructor"
    },
    {
      "inputs": [
        {
          "internalType": "address",
          "name": "",
          "type": "address"
        }
      ],
      "name": "contributors",
      "outputs": [
        {
          "internalType": "uint256",
          "name": "",
          "type": "uint256"
        }
      ],
      "stateMutability": "view",
      "type": "function",
      "constant": true
    },
    {
      "inputs": [],
      "name": "contributorsCount",
      "outputs": [
        {
          "internalType": "uint256",
          "name": "",
          "type": "uint256"
        }
      ],
      "stateMutability": "view",
      "type": "function",
      "constant": true
    },
    {
      "inputs": [],
      "name": "manager",
      "outputs": [
        {
          "internalType": "address",
          "name": "",
          "type": "address"
        }
      ],
      "stateMutability": "view",
      "type": "function",
      "constant": true
    },
    {
      "inputs": [
        {
          "internalType": "address",
          "name": "",
          "type": "address"
        }
      ],
      "name": "vipContributors",
      "outputs": [
        {
          "internalType": "bool",
          "name": "",
          "type": "bool"
        }
      ],
      "stateMutability": "view",
      "type": "function",
      "constant": true
    },
    {
      "inputs": [
        {
          "internalType": "uint256",
          "name": "_state",
          "type": "uint256"
        }
      ],
      "name": "setState",
      "outputs": [],
      "stateMutability": "nonpayable",
      "type": "function"
    },
    {
      "inputs": [],
      "name": "contribute",
      "outputs": [],
      "stateMutability": "payable",
      "type": "function",
      "payable": true
    },
    {
      "inputs": [],
      "name": "refund",
      "outputs": [
        {
          "internalType": "address",
          "name": "",
          "type": "address"
        }
      ],
      "stateMutability": "view",
      "type": "function",
      "constant": true
    }
  ],
  "bytecode": "0x608060405260646005556103e860065534801561001b57600080fd5b5033600160006101000a81548173ffffffffffffffffffffffffffffffffffffffff021916908373ffffffffffffffffffffffffffffffffffffffff160217905550600160008190555061065e806100746000396000f3fe6080604052600436106100705760003560e01c80636d5ad6671161004e5780636d5ad667146101085780637569b3d714610145578063a9e966b714610170578063d7bb99ba1461019957610070565b80631f6d494214610075578063481c6a75146100b2578063590e1ae3146100dd575b600080fd5b34801561008157600080fd5b5061009c600480360381019061009791906103f9565b6101a3565b6040516100a9919061050e565b60405180910390f35b3480156100be57600080fd5b506100c76101bb565b6040516100d491906104b8565b60405180910390f35b3480156100e957600080fd5b506100f26101e1565b6040516100ff91906104b8565b60405180910390f35b34801561011457600080fd5b5061012f600480360381019061012a91906103f9565b61022d565b60405161013c91906104d3565b60405180910390f35b34801561015157600080fd5b5061015a61024d565b604051610167919061050e565b60405180910390f35b34801561017c57600080fd5b5061019760048036038101906101929190610422565b610253565b005b6101a16102b7565b005b60026020528060005260406000206000915090505481565b600160009054906101000a900473ffffffffffffffffffffffffffffffffffffffff1681565b60008060005414610227576040517f08c379a000000000000000000000000000000000000000000000000000000000815260040161021e906104ee565b60405180910390fd5b33905090565b60036020528060005260406000206000915054906101000a900460ff1681565b60045481565b600160009054906101000a900473ffffffffffffffffffffffffffffffffffffffff1673ffffffffffffffffffffffffffffffffffffffff163373ffffffffffffffffffffffffffffffffffffffff16146102ad57600080fd5b8060008190555050565b60055434116102c557600080fd5b6000600260003373ffffffffffffffffffffffffffffffffffffffff1673ffffffffffffffffffffffffffffffffffffffff168152602001908152602001600020541415610326576004600081548092919061032090610582565b91905055505b6001600260003373ffffffffffffffffffffffffffffffffffffffff1673ffffffffffffffffffffffffffffffffffffffff1681526020019081526020016000208190555060065434106103cd576001600360003373ffffffffffffffffffffffffffffffffffffffff1673ffffffffffffffffffffffffffffffffffffffff16815260200190815260200160002060006101000a81548160ff0219169083151502179055505b565b6000813590506103de816105fa565b92915050565b6000813590506103f381610611565b92915050565b60006020828403121561040b57600080fd5b6000610419848285016103cf565b91505092915050565b60006020828403121561043457600080fd5b6000610442848285016103e4565b91505092915050565b6104548161053a565b82525050565b6104638161054c565b82525050565b6000610476601483610529565b91507f4d75737420626520696e205245442073746174650000000000000000000000006000830152602082019050919050565b6104b281610578565b82525050565b60006020820190506104cd600083018461044b565b92915050565b60006020820190506104e8600083018461045a565b92915050565b6000602082019050818103600083015261050781610469565b9050919050565b600060208201905061052360008301846104a9565b92915050565b600082825260208201905092915050565b600061054582610558565b9050919050565b60008115159050919050565b600073ffffffffffffffffffffffffffffffffffffffff82169050919050565b6000819050919050565b600061058d82610578565b91507fffffffffffffffffffffffffffffffffffffffffffffffffffffffffffffffff8214156105c0576105bf6105cb565b5b600182019050919050565b7f4e487b7100000000000000000000000000000000000000000000000000000000600052601160045260246000fd5b6106038161053a565b811461060e57600080fd5b50565b61061a81610578565b811461062557600080fd5b5056fea2646970667358221220705b3f1bc32b6b7da4947909d00addd3392655d9c0a5a01cd1d60eed1aeab05d64736f6c63430008000033",
  "immutableReferences": {},
  "source": "// SPDX-License-Identifier: GPL-3.0\r\n\r\npragma solidity <0.9.0;\r\n\r\ncontract Bounty {\r\n\r\n    uint state;\r\n    address public manager;\r\n    mapping(address => uint256) public contributors;\r\n    mapping(address => bool) public vipContributors;\r\n    uint public contributorsCount;\r\n    uint minimumContribution = 100;\r\n    uint vipContribution = 1000;\r\n\r\n    constructor() {\r\n        manager = msg.sender;\r\n        state = 1;\r\n    }\r\n\r\n     modifier onlyOwner() {\r\n        require(msg.sender == manager);\r\n        _;\r\n    }\r\n\r\n    modifier redOnly() {\r\n        require(state == 0, \"Must be in RED state\");\r\n        _;\r\n    }\r\n\r\n    modifier greenOnly() {\r\n        require(state == 2, \"Must be in GREEN state\");\r\n        _;\r\n    }\r\n\r\n    modifier notRed() {\r\n        require(state != 0, \"Must not be in RED state\");\r\n        _;\r\n    }\r\n\r\n\r\n    function setState(uint _state) public onlyOwner {\r\n        state = _state;        \r\n        \r\n    }\r\n\r\n    function contribute() public payable {\r\n        require(msg.value > minimumContribution);\r\n        \r\n        if(contributors[msg.sender] == 0) {\r\n        contributorsCount++;\r\n        }\r\n        contributors[msg.sender] = 1;\r\n\r\n        if(msg.value >= vipContribution) {\r\n            vipContributors[msg.sender] = true;\r\n        }\r\n\r\n    }\r\n\r\n\r\n    function refund() public view redOnly returns(address) {\r\n        return msg.sender;\r\n    }\r\n\r\n\r\n\r\n}\r\n",
  "sourcePath": "C:\\Users\\Daniel\\Documents\\Visual studio code\\Band Bounty\\contracts\\Bountycontract.sol",
  "compiler": {
    "name": "solc",
    "version": "0.8.0+commit.c7dfd78e.Emscripten.clang"
  },
  "schemaVersion": "3.4.3",
  "updatedAt": "2022-05-22T04:35:13.736Z",
  "networkType": "ethereum",
  "devdoc": {
    "kind": "dev",
    "methods": {},
    "version": 1
  },
  "userdoc": {
    "kind": "user",
    "methods": {},
    "version": 1
  }
}